{
  "contractName": "nftContract",
  "abi": [
    {
      "inputs": [],
      "stateMutability": "nonpayable",
      "type": "constructor"
    },
    {
      "anonymous": false,
      "inputs": [
        {
          "indexed": true,
          "internalType": "address",
          "name": "owner",
          "type": "address"
        },
        {
          "indexed": true,
          "internalType": "address",
          "name": "approved",
          "type": "address"
        },
        {
          "indexed": true,
          "internalType": "uint256",
          "name": "tokenId",
          "type": "uint256"
        }
      ],
      "name": "Approval",
      "type": "event"
    },
    {
      "anonymous": false,
      "inputs": [
        {
          "indexed": true,
          "internalType": "address",
          "name": "owner",
          "type": "address"
        },
        {
          "indexed": true,
          "internalType": "address",
          "name": "operator",
          "type": "address"
        },
        {
          "indexed": false,
          "internalType": "bool",
          "name": "approved",
          "type": "bool"
        }
      ],
      "name": "ApprovalForAll",
      "type": "event"
    },
    {
      "anonymous": false,
      "inputs": [
        {
          "indexed": true,
          "internalType": "address",
          "name": "from",
          "type": "address"
        },
        {
          "indexed": true,
          "internalType": "address",
          "name": "to",
          "type": "address"
        },
        {
          "indexed": true,
          "internalType": "uint256",
          "name": "tokenId",
          "type": "uint256"
        }
      ],
      "name": "Transfer",
      "type": "event"
    },
    {
      "inputs": [],
      "name": "_itemsAvailable",
      "outputs": [
        {
          "internalType": "uint256",
          "name": "",
          "type": "uint256"
        }
      ],
      "stateMutability": "view",
      "type": "function"
    },
    {
      "inputs": [],
      "name": "_itemsAvailablePerSecond",
      "outputs": [
        {
          "internalType": "uint256",
          "name": "",
          "type": "uint256"
        }
      ],
      "stateMutability": "view",
      "type": "function"
    },
    {
      "inputs": [],
      "name": "_itemsSold",
      "outputs": [
        {
          "internalType": "uint256",
          "name": "",
          "type": "uint256"
        }
      ],
      "stateMutability": "view",
      "type": "function"
    },
    {
      "inputs": [],
      "name": "_itemsSoldPerSecond",
      "outputs": [
        {
          "internalType": "uint256",
          "name": "",
          "type": "uint256"
        }
      ],
      "stateMutability": "view",
      "type": "function"
    },
    {
      "inputs": [],
      "name": "_itemsTotal",
      "outputs": [
        {
          "internalType": "uint256",
          "name": "",
          "type": "uint256"
        }
      ],
      "stateMutability": "view",
      "type": "function"
    },
    {
      "inputs": [],
      "name": "_tokenIds",
      "outputs": [
        {
          "internalType": "uint256",
          "name": "",
          "type": "uint256"
        }
      ],
      "stateMutability": "view",
      "type": "function"
    },
    {
      "inputs": [
        {
          "internalType": "address",
          "name": "to",
          "type": "address"
        },
        {
          "internalType": "uint256",
          "name": "tokenId",
          "type": "uint256"
        }
      ],
      "name": "approve",
      "outputs": [],
      "stateMutability": "nonpayable",
      "type": "function"
    },
    {
      "inputs": [
        {
          "internalType": "address",
          "name": "owner",
          "type": "address"
        }
      ],
      "name": "balanceOf",
      "outputs": [
        {
          "internalType": "uint256",
          "name": "",
          "type": "uint256"
        }
      ],
      "stateMutability": "view",
      "type": "function"
    },
    {
      "inputs": [
        {
          "internalType": "uint256",
          "name": "tokenId",
          "type": "uint256"
        }
      ],
      "name": "getApproved",
      "outputs": [
        {
          "internalType": "address",
          "name": "",
          "type": "address"
        }
      ],
      "stateMutability": "view",
      "type": "function"
    },
    {
      "inputs": [],
      "name": "hh",
      "outputs": [
        {
          "internalType": "string",
          "name": "",
          "type": "string"
        }
      ],
      "stateMutability": "view",
      "type": "function"
    },
    {
      "inputs": [
        {
          "internalType": "address",
          "name": "owner",
          "type": "address"
        },
        {
          "internalType": "address",
          "name": "operator",
          "type": "address"
        }
      ],
      "name": "isApprovedForAll",
      "outputs": [
        {
          "internalType": "bool",
          "name": "",
          "type": "bool"
        }
      ],
      "stateMutability": "view",
      "type": "function"
    },
    {
      "inputs": [],
      "name": "listingDuration",
      "outputs": [
        {
          "internalType": "uint256",
          "name": "",
          "type": "uint256"
        }
      ],
      "stateMutability": "view",
      "type": "function"
    },
    {
      "inputs": [],
      "name": "listingEnd",
      "outputs": [
        {
          "internalType": "uint256",
          "name": "",
          "type": "uint256"
        }
      ],
      "stateMutability": "view",
      "type": "function"
    },
    {
      "inputs": [],
      "name": "listingPrice",
      "outputs": [
        {
          "internalType": "uint256",
          "name": "",
          "type": "uint256"
        }
      ],
      "stateMutability": "view",
      "type": "function"
    },
    {
      "inputs": [],
      "name": "listingStart",
      "outputs": [
        {
          "internalType": "uint256",
          "name": "",
          "type": "uint256"
        }
      ],
      "stateMutability": "view",
      "type": "function"
    },
    {
      "inputs": [],
      "name": "name",
      "outputs": [
        {
          "internalType": "string",
          "name": "",
          "type": "string"
        }
      ],
      "stateMutability": "view",
      "type": "function"
    },
    {
      "inputs": [],
      "name": "owner",
      "outputs": [
        {
          "internalType": "address",
          "name": "",
          "type": "address"
        }
      ],
      "stateMutability": "view",
      "type": "function"
    },
    {
      "inputs": [
        {
          "internalType": "uint256",
          "name": "tokenId",
          "type": "uint256"
        }
      ],
      "name": "ownerOf",
      "outputs": [
        {
          "internalType": "address",
          "name": "",
          "type": "address"
        }
      ],
      "stateMutability": "view",
      "type": "function"
    },
    {
      "inputs": [
        {
          "internalType": "address",
          "name": "from",
          "type": "address"
        },
        {
          "internalType": "address",
          "name": "to",
          "type": "address"
        },
        {
          "internalType": "uint256",
          "name": "tokenId",
          "type": "uint256"
        }
      ],
      "name": "safeTransferFrom",
      "outputs": [],
      "stateMutability": "nonpayable",
      "type": "function"
    },
    {
      "inputs": [
        {
          "internalType": "address",
          "name": "from",
          "type": "address"
        },
        {
          "internalType": "address",
          "name": "to",
          "type": "address"
        },
        {
          "internalType": "uint256",
          "name": "tokenId",
          "type": "uint256"
        },
        {
          "internalType": "bytes",
          "name": "_data",
          "type": "bytes"
        }
      ],
      "name": "safeTransferFrom",
      "outputs": [],
      "stateMutability": "nonpayable",
      "type": "function"
    },
    {
      "inputs": [
        {
          "internalType": "address",
          "name": "operator",
          "type": "address"
        },
        {
          "internalType": "bool",
          "name": "approved",
          "type": "bool"
        }
      ],
      "name": "setApprovalForAll",
      "outputs": [],
      "stateMutability": "nonpayable",
      "type": "function"
    },
    {
      "inputs": [
        {
          "internalType": "bytes4",
          "name": "interfaceId",
          "type": "bytes4"
        }
      ],
      "name": "supportsInterface",
      "outputs": [
        {
          "internalType": "bool",
          "name": "",
          "type": "bool"
        }
      ],
      "stateMutability": "view",
      "type": "function"
    },
    {
      "inputs": [],
      "name": "symbol",
      "outputs": [
        {
          "internalType": "string",
          "name": "",
          "type": "string"
        }
      ],
      "stateMutability": "view",
      "type": "function"
    },
    {
      "inputs": [
        {
          "internalType": "uint256",
          "name": "tokenId",
          "type": "uint256"
        }
      ],
      "name": "tokenURI",
      "outputs": [
        {
          "internalType": "string",
          "name": "",
          "type": "string"
        }
      ],
      "stateMutability": "view",
      "type": "function"
    },
    {
      "inputs": [
        {
          "internalType": "address",
          "name": "from",
          "type": "address"
        },
        {
          "internalType": "address",
          "name": "to",
          "type": "address"
        },
        {
          "internalType": "uint256",
          "name": "tokenId",
          "type": "uint256"
        }
      ],
      "name": "transferFrom",
      "outputs": [],
      "stateMutability": "nonpayable",
      "type": "function"
    },
    {
      "inputs": [],
      "name": "getListingPrice",
      "outputs": [
        {
          "internalType": "uint256",
          "name": "",
          "type": "uint256"
        }
      ],
      "stateMutability": "nonpayable",
      "type": "function"
    },
    {
      "inputs": [],
      "name": "getHi",
      "outputs": [
        {
          "internalType": "string",
          "name": "",
          "type": "string"
        }
      ],
      "stateMutability": "nonpayable",
      "type": "function"
    },
    {
      "inputs": [
        {
          "internalType": "uint256",
          "name": "_listingPrice",
          "type": "uint256"
        }
      ],
      "name": "setListingPrice",
      "outputs": [],
      "stateMutability": "nonpayable",
      "type": "function"
    },
    {
      "inputs": [
        {
          "internalType": "address",
          "name": "receiver",
          "type": "address"
        },
        {
          "internalType": "string",
          "name": "tokenURI",
          "type": "string"
        }
      ],
      "name": "createNFT",
      "outputs": [
        {
          "internalType": "uint256",
          "name": "",
          "type": "uint256"
        }
      ],
      "stateMutability": "nonpayable",
      "type": "function"
    }
  ],
  "bytecode": "0x60806040526040518060400160405280600c81526020017f6e667420636f6e74726163740000000000000000000000000000000000000000815250600890805190602001906200005192919062000162565b50600a80553480156200006357600080fd5b506040518060400160405280600b81526020017f6e6674436f6e74726163740000000000000000000000000000000000000000008152506040518060400160405280600581526020017f6e6674546b0000000000000000000000000000000000000000000000000000008152508160009080519060200190620000e892919062000162565b5080600190805190602001906200010192919062000162565b50505060016007546200011591906200024b565b60078190555033600960006101000a81548173ffffffffffffffffffffffffffffffffffffffff021916908373ffffffffffffffffffffffffffffffffffffffff1602179055506200030d565b8280546200017090620002d7565b90600052602060002090601f016020900481019282620001945760008555620001e0565b82601f10620001af57805160ff1916838001178555620001e0565b82800160010185558215620001e0579182015b82811115620001df578251825591602001919060010190620001c2565b5b509050620001ef9190620001f3565b5090565b5b808211156200020e576000816000905550600101620001f4565b5090565b6000819050919050565b7f4e487b7100000000000000000000000000000000000000000000000000000000600052601160045260246000fd5b6000620002588262000212565b9150620002658362000212565b9250827fffffffffffffffffffffffffffffffffffffffffffffffffffffffffffffffff038211156200029d576200029c6200021c565b5b828201905092915050565b7f4e487b7100000000000000000000000000000000000000000000000000000000600052602260045260246000fd5b60006002820490506001821680620002f057607f821691505b60208210811415620003075762000306620002a8565b5b50919050565b612fdd806200031d6000396000f3fe608060405234801561001057600080fd5b50600436106101cf5760003560e01c806381fd5e2811610104578063aa6691bb116100a2578063c78f19f911610071578063c78f19f914610510578063c87b56dd1461052e578063e985e9c51461055e578063f938884c1461058e576101cf565b8063aa6691bb1461049a578063b88d4fde146104b8578063c2d15676146104d4578063c763564b146104f2576101cf565b806395d89b41116100de57806395d89b4114610412578063a22cb46514610430578063a56140331461044c578063aa46a4001461047c576101cf565b806381fd5e28146103b857806387506a0d146103d65780638da5cb5b146103f4576101cf565b80632f6965b61161017157806370a082311161014b57806370a08231146103305780637c726b69146103605780637d14bb2a1461037c5780637e98a6fd1461039a576101cf565b80632f6965b6146102c657806342842e0e146102e45780636352211e14610300576101cf565b8063095ea7b3116101ad578063095ea7b31461025257806312e855851461026e57806323b872dd1461028c5780632850df1a146102a8576101cf565b806301ffc9a7146101d457806306fdde0314610204578063081812fc14610222575b600080fd5b6101ee60048036038101906101e99190611d3f565b6105ac565b6040516101fb9190611d87565b60405180910390f35b61020c61068e565b6040516102199190611e3b565b60405180910390f35b61023c60048036038101906102379190611e93565b610720565b6040516102499190611f01565b60405180910390f35b61026c60048036038101906102679190611f48565b6107a5565b005b6102766108bd565b6040516102839190611f97565b60405180910390f35b6102a660048036038101906102a19190611fb2565b6108c7565b005b6102b0610927565b6040516102bd9190611f97565b60405180910390f35b6102ce61092d565b6040516102db9190611f97565b60405180910390f35b6102fe60048036038101906102f99190611fb2565b610933565b005b61031a60048036038101906103159190611e93565b610953565b6040516103279190611f01565b60405180910390f35b61034a60048036038101906103459190612005565b610a05565b6040516103579190611f97565b60405180910390f35b61037a60048036038101906103759190611e93565b610abd565b005b610384610ac7565b6040516103919190611f97565b60405180910390f35b6103a2610acd565b6040516103af9190611e3b565b60405180910390f35b6103c0610b5b565b6040516103cd9190611e3b565b60405180910390f35b6103de610bed565b6040516103eb9190611f97565b60405180910390f35b6103fc610bf3565b6040516104099190611f01565b60405180910390f35b61041a610c19565b6040516104279190611e3b565b60405180910390f35b61044a6004803603810190610445919061205e565b610cab565b005b610466600480360381019061046191906121d3565b610cc1565b6040516104739190611f97565b60405180910390f35b610484610cfd565b6040516104919190611f97565b60405180910390f35b6104a2610d03565b6040516104af9190611f97565b60405180910390f35b6104d260048036038101906104cd91906122d0565b610d09565b005b6104dc610d6b565b6040516104e99190611f97565b60405180910390f35b6104fa610d71565b6040516105079190611f97565b60405180910390f35b610518610d77565b6040516105259190611f97565b60405180910390f35b61054860048036038101906105439190611e93565b610d7d565b6040516105559190611e3b565b60405180910390f35b61057860048036038101906105739190612353565b610ecf565b6040516105859190611d87565b60405180910390f35b610596610f63565b6040516105a39190611f97565b60405180910390f35b60007f80ac58cd000000000000000000000000000000000000000000000000000000007bffffffffffffffffffffffffffffffffffffffffffffffffffffffff1916827bffffffffffffffffffffffffffffffffffffffffffffffffffffffff1916148061067757507f5b5e139f000000000000000000000000000000000000000000000000000000007bffffffffffffffffffffffffffffffffffffffffffffffffffffffff1916827bffffffffffffffffffffffffffffffffffffffffffffffffffffffff1916145b80610687575061068682610f69565b5b9050919050565b60606000805461069d906123c2565b80601f01602080910402602001604051908101604052809291908181526020018280546106c9906123c2565b80156107165780601f106106eb57610100808354040283529160200191610716565b820191906000526020600020905b8154815290600101906020018083116106f957829003601f168201915b5050505050905090565b600061072b82610fd3565b61076a576040517f08c379a000000000000000000000000000000000000000000000000000000000815260040161076190612466565b60405180910390fd5b6004600083815260200190815260200160002060009054906101000a900473ffffffffffffffffffffffffffffffffffffffff169050919050565b60006107b082610953565b90508073ffffffffffffffffffffffffffffffffffffffff168373ffffffffffffffffffffffffffffffffffffffff161415610821576040517f08c379a0000000000000000000000000000000000000000000000000000000008152600401610818906124f8565b60405180910390fd5b8073ffffffffffffffffffffffffffffffffffffffff1661084061103f565b73ffffffffffffffffffffffffffffffffffffffff16148061086f575061086e8161086961103f565b610ecf565b5b6108ae576040517f08c379a00000000000000000000000000000000000000000000000000000000081526004016108a59061258a565b60405180910390fd5b6108b88383611047565b505050565b6000600a54905090565b6108d86108d261103f565b82611100565b610917576040517f08c379a000000000000000000000000000000000000000000000000000000000815260040161090e9061261c565b60405180910390fd5b6109228383836111de565b505050565b600b5481565b600d5481565b61094e83838360405180602001604052806000815250610d09565b505050565b6000806002600084815260200190815260200160002060009054906101000a900473ffffffffffffffffffffffffffffffffffffffff169050600073ffffffffffffffffffffffffffffffffffffffff168173ffffffffffffffffffffffffffffffffffffffff1614156109fc576040517f08c379a00000000000000000000000000000000000000000000000000000000081526004016109f3906126ae565b60405180910390fd5b80915050919050565b60008073ffffffffffffffffffffffffffffffffffffffff168273ffffffffffffffffffffffffffffffffffffffff161415610a76576040517f08c379a0000000000000000000000000000000000000000000000000000000008152600401610a6d90612740565b60405180910390fd5b600360008373ffffffffffffffffffffffffffffffffffffffff1673ffffffffffffffffffffffffffffffffffffffff168152602001908152602001600020549050919050565b80600a8190555050565b60115481565b60088054610ada906123c2565b80601f0160208091040260200160405190810160405280929190818152602001828054610b06906123c2565b8015610b535780601f10610b2857610100808354040283529160200191610b53565b820191906000526020600020905b815481529060010190602001808311610b3657829003601f168201915b505050505081565b606060088054610b6a906123c2565b80601f0160208091040260200160405190810160405280929190818152602001828054610b96906123c2565b8015610be35780601f10610bb857610100808354040283529160200191610be3565b820191906000526020600020905b815481529060010190602001808311610bc657829003601f168201915b5050505050905090565b600e5481565b600960009054906101000a900473ffffffffffffffffffffffffffffffffffffffff1681565b606060018054610c28906123c2565b80601f0160208091040260200160405190810160405280929190818152602001828054610c54906123c2565b8015610ca15780601f10610c7657610100808354040283529160200191610ca1565b820191906000526020600020905b815481529060010190602001808311610c8457829003601f168201915b5050505050905090565b610cbd610cb661103f565b8383611445565b5050565b60006001600754610cd2919061278f565b60078190555060006007549050610ce984826115b2565b610cf3818461178c565b8091505092915050565b60075481565b600c5481565b610d1a610d1461103f565b83611100565b610d59576040517f08c379a0000000000000000000000000000000000000000000000000000000008152600401610d509061261c565b60405180910390fd5b610d6584848484611800565b50505050565b600f5481565b60105481565b600a5481565b6060610d8882610fd3565b610dc7576040517f08c379a0000000000000000000000000000000000000000000000000000000008152600401610dbe90612857565b60405180910390fd5b6000600660008481526020019081526020016000208054610de7906123c2565b80601f0160208091040260200160405190810160405280929190818152602001828054610e13906123c2565b8015610e605780601f10610e3557610100808354040283529160200191610e60565b820191906000526020600020905b815481529060010190602001808311610e4357829003601f168201915b505050505090506000610e7161185c565b9050600081511415610e87578192505050610eca565b600082511115610ebc578082604051602001610ea49291906128b3565b60405160208183030381529060405292505050610eca565b610ec584611873565b925050505b919050565b6000600560008473ffffffffffffffffffffffffffffffffffffffff1673ffffffffffffffffffffffffffffffffffffffff16815260200190815260200160002060008373ffffffffffffffffffffffffffffffffffffffff1673ffffffffffffffffffffffffffffffffffffffff16815260200190815260200160002060009054906101000a900460ff16905092915050565b60125481565b60007f01ffc9a7000000000000000000000000000000000000000000000000000000007bffffffffffffffffffffffffffffffffffffffffffffffffffffffff1916827bffffffffffffffffffffffffffffffffffffffffffffffffffffffff1916149050919050565b60008073ffffffffffffffffffffffffffffffffffffffff166002600084815260200190815260200160002060009054906101000a900473ffffffffffffffffffffffffffffffffffffffff1673ffffffffffffffffffffffffffffffffffffffff1614159050919050565b600033905090565b816004600083815260200190815260200160002060006101000a81548173ffffffffffffffffffffffffffffffffffffffff021916908373ffffffffffffffffffffffffffffffffffffffff160217905550808273ffffffffffffffffffffffffffffffffffffffff166110ba83610953565b73ffffffffffffffffffffffffffffffffffffffff167f8c5be1e5ebec7d5bd14f71427d1e84f3dd0314c0f7b2291e5b200ac8c7c3b92560405160405180910390a45050565b600061110b82610fd3565b61114a576040517f08c379a000000000000000000000000000000000000000000000000000000000815260040161114190612949565b60405180910390fd5b600061115583610953565b90508073ffffffffffffffffffffffffffffffffffffffff168473ffffffffffffffffffffffffffffffffffffffff1614806111c457508373ffffffffffffffffffffffffffffffffffffffff166111ac84610720565b73ffffffffffffffffffffffffffffffffffffffff16145b806111d557506111d48185610ecf565b5b91505092915050565b8273ffffffffffffffffffffffffffffffffffffffff166111fe82610953565b73ffffffffffffffffffffffffffffffffffffffff1614611254576040517f08c379a000000000000000000000000000000000000000000000000000000000815260040161124b906129db565b60405180910390fd5b600073ffffffffffffffffffffffffffffffffffffffff168273ffffffffffffffffffffffffffffffffffffffff1614156112c4576040517f08c379a00000000000000000000000000000000000000000000000000000000081526004016112bb90612a6d565b60405180910390fd5b6112cf83838361191a565b6112da600082611047565b6001600360008573ffffffffffffffffffffffffffffffffffffffff1673ffffffffffffffffffffffffffffffffffffffff168152602001908152602001600020600082825461132a9190612a8d565b925050819055506001600360008473ffffffffffffffffffffffffffffffffffffffff1673ffffffffffffffffffffffffffffffffffffffff1681526020019081526020016000206000828254611381919061278f565b92505081905550816002600083815260200190815260200160002060006101000a81548173ffffffffffffffffffffffffffffffffffffffff021916908373ffffffffffffffffffffffffffffffffffffffff160217905550808273ffffffffffffffffffffffffffffffffffffffff168473ffffffffffffffffffffffffffffffffffffffff167fddf252ad1be2c89b69c2b068fc378daa952ba7f163c4a11628f55a4df523b3ef60405160405180910390a461144083838361191f565b505050565b8173ffffffffffffffffffffffffffffffffffffffff168373ffffffffffffffffffffffffffffffffffffffff1614156114b4576040517f08c379a00000000000000000000000000000000000000000000000000000000081526004016114ab90612b0d565b60405180910390fd5b80600560008573ffffffffffffffffffffffffffffffffffffffff1673ffffffffffffffffffffffffffffffffffffffff16815260200190815260200160002060008473ffffffffffffffffffffffffffffffffffffffff1673ffffffffffffffffffffffffffffffffffffffff16815260200190815260200160002060006101000a81548160ff0219169083151502179055508173ffffffffffffffffffffffffffffffffffffffff168373ffffffffffffffffffffffffffffffffffffffff167f17307eab39ab6107e8899845ad3d59bd9653f200f220920489ca2b5937696c31836040516115a59190611d87565b60405180910390a3505050565b600073ffffffffffffffffffffffffffffffffffffffff168273ffffffffffffffffffffffffffffffffffffffff161415611622576040517f08c379a000000000000000000000000000000000000000000000000000000000815260040161161990612b79565b60405180910390fd5b61162b81610fd3565b1561166b576040517f08c379a000000000000000000000000000000000000000000000000000000000815260040161166290612be5565b60405180910390fd5b6116776000838361191a565b6001600360008473ffffffffffffffffffffffffffffffffffffffff1673ffffffffffffffffffffffffffffffffffffffff16815260200190815260200160002060008282546116c7919061278f565b92505081905550816002600083815260200190815260200160002060006101000a81548173ffffffffffffffffffffffffffffffffffffffff021916908373ffffffffffffffffffffffffffffffffffffffff160217905550808273ffffffffffffffffffffffffffffffffffffffff16600073ffffffffffffffffffffffffffffffffffffffff167fddf252ad1be2c89b69c2b068fc378daa952ba7f163c4a11628f55a4df523b3ef60405160405180910390a46117886000838361191f565b5050565b61179582610fd3565b6117d4576040517f08c379a00000000000000000000000000000000000000000000000000000000081526004016117cb90612c77565b60405180910390fd5b806006600084815260200190815260200160002090805190602001906117fb929190611c30565b505050565b61180b8484846111de565b61181784848484611924565b611856576040517f08c379a000000000000000000000000000000000000000000000000000000000815260040161184d90612d09565b60405180910390fd5b50505050565b606060405180602001604052806000815250905090565b606061187e82610fd3565b6118bd576040517f08c379a00000000000000000000000000000000000000000000000000000000081526004016118b490612d9b565b60405180910390fd5b60006118c761185c565b905060008151116118e75760405180602001604052806000815250611912565b806118f184611aac565b6040516020016119029291906128b3565b6040516020818303038152906040525b915050919050565b505050565b505050565b60006119458473ffffffffffffffffffffffffffffffffffffffff16611c0d565b15611a9f578373ffffffffffffffffffffffffffffffffffffffff1663150b7a0261196e61103f565b8786866040518563ffffffff1660e01b81526004016119909493929190612e10565b6020604051808303816000875af19250505080156119cc57506040513d601f19601f820116820180604052508101906119c99190612e71565b60015b611a4f573d80600081146119fc576040519150601f19603f3d011682016040523d82523d6000602084013e611a01565b606091505b50600081511415611a47576040517f08c379a0000000000000000000000000000000000000000000000000000000008152600401611a3e90612d09565b60405180910390fd5b805181602001fd5b63150b7a0260e01b7bffffffffffffffffffffffffffffffffffffffffffffffffffffffff1916817bffffffffffffffffffffffffffffffffffffffffffffffffffffffff191614915050611aa4565b600190505b949350505050565b60606000821415611af4576040518060400160405280600181526020017f30000000000000000000000000000000000000000000000000000000000000008152509050611c08565b600082905060005b60008214611b26578080611b0f90612e9e565b915050600a82611b1f9190612f16565b9150611afc565b60008167ffffffffffffffff811115611b4257611b416120a8565b5b6040519080825280601f01601f191660200182016040528015611b745781602001600182028036833780820191505090505b5090505b60008514611c0157600182611b8d9190612a8d565b9150600a85611b9c9190612f47565b6030611ba8919061278f565b60f81b818381518110611bbe57611bbd612f78565b5b60200101907effffffffffffffffffffffffffffffffffffffffffffffffffffffffffffff1916908160001a905350600a85611bfa9190612f16565b9450611b78565b8093505050505b919050565b6000808273ffffffffffffffffffffffffffffffffffffffff163b119050919050565b828054611c3c906123c2565b90600052602060002090601f016020900481019282611c5e5760008555611ca5565b82601f10611c7757805160ff1916838001178555611ca5565b82800160010185558215611ca5579182015b82811115611ca4578251825591602001919060010190611c89565b5b509050611cb29190611cb6565b5090565b5b80821115611ccf576000816000905550600101611cb7565b5090565b6000604051905090565b600080fd5b600080fd5b60007fffffffff0000000000000000000000000000000000000000000000000000000082169050919050565b611d1c81611ce7565b8114611d2757600080fd5b50565b600081359050611d3981611d13565b92915050565b600060208284031215611d5557611d54611cdd565b5b6000611d6384828501611d2a565b91505092915050565b60008115159050919050565b611d8181611d6c565b82525050565b6000602082019050611d9c6000830184611d78565b92915050565b600081519050919050565b600082825260208201905092915050565b60005b83811015611ddc578082015181840152602081019050611dc1565b83811115611deb576000848401525b50505050565b6000601f19601f8301169050919050565b6000611e0d82611da2565b611e178185611dad565b9350611e27818560208601611dbe565b611e3081611df1565b840191505092915050565b60006020820190508181036000830152611e558184611e02565b905092915050565b6000819050919050565b611e7081611e5d565b8114611e7b57600080fd5b50565b600081359050611e8d81611e67565b92915050565b600060208284031215611ea957611ea8611cdd565b5b6000611eb784828501611e7e565b91505092915050565b600073ffffffffffffffffffffffffffffffffffffffff82169050919050565b6000611eeb82611ec0565b9050919050565b611efb81611ee0565b82525050565b6000602082019050611f166000830184611ef2565b92915050565b611f2581611ee0565b8114611f3057600080fd5b50565b600081359050611f4281611f1c565b92915050565b60008060408385031215611f5f57611f5e611cdd565b5b6000611f6d85828601611f33565b9250506020611f7e85828601611e7e565b9150509250929050565b611f9181611e5d565b82525050565b6000602082019050611fac6000830184611f88565b92915050565b600080600060608486031215611fcb57611fca611cdd565b5b6000611fd986828701611f33565b9350506020611fea86828701611f33565b9250506040611ffb86828701611e7e565b9150509250925092565b60006020828403121561201b5761201a611cdd565b5b600061202984828501611f33565b91505092915050565b61203b81611d6c565b811461204657600080fd5b50565b60008135905061205881612032565b92915050565b6000806040838503121561207557612074611cdd565b5b600061208385828601611f33565b925050602061209485828601612049565b9150509250929050565b600080fd5b600080fd5b7f4e487b7100000000000000000000000000000000000000000000000000000000600052604160045260246000fd5b6120e082611df1565b810181811067ffffffffffffffff821117156120ff576120fe6120a8565b5b80604052505050565b6000612112611cd3565b905061211e82826120d7565b919050565b600067ffffffffffffffff82111561213e5761213d6120a8565b5b61214782611df1565b9050602081019050919050565b82818337600083830152505050565b600061217661217184612123565b612108565b905082815260208101848484011115612192576121916120a3565b5b61219d848285612154565b509392505050565b600082601f8301126121ba576121b961209e565b5b81356121ca848260208601612163565b91505092915050565b600080604083850312156121ea576121e9611cdd565b5b60006121f885828601611f33565b925050602083013567ffffffffffffffff81111561221957612218611ce2565b5b612225858286016121a5565b9150509250929050565b600067ffffffffffffffff82111561224a576122496120a8565b5b61225382611df1565b9050602081019050919050565b600061227361226e8461222f565b612108565b90508281526020810184848401111561228f5761228e6120a3565b5b61229a848285612154565b509392505050565b600082601f8301126122b7576122b661209e565b5b81356122c7848260208601612260565b91505092915050565b600080600080608085870312156122ea576122e9611cdd565b5b60006122f887828801611f33565b945050602061230987828801611f33565b935050604061231a87828801611e7e565b925050606085013567ffffffffffffffff81111561233b5761233a611ce2565b5b612347878288016122a2565b91505092959194509250565b6000806040838503121561236a57612369611cdd565b5b600061237885828601611f33565b925050602061238985828601611f33565b9150509250929050565b7f4e487b7100000000000000000000000000000000000000000000000000000000600052602260045260246000fd5b600060028204905060018216806123da57607f821691505b602082108114156123ee576123ed612393565b5b50919050565b7f4552433732313a20617070726f76656420717565727920666f72206e6f6e657860008201527f697374656e7420746f6b656e0000000000000000000000000000000000000000602082015250565b6000612450602c83611dad565b915061245b826123f4565b604082019050919050565b6000602082019050818103600083015261247f81612443565b9050919050565b7f4552433732313a20617070726f76616c20746f2063757272656e74206f776e6560008201527f7200000000000000000000000000000000000000000000000000000000000000602082015250565b60006124e2602183611dad565b91506124ed82612486565b604082019050919050565b60006020820190508181036000830152612511816124d5565b9050919050565b7f4552433732313a20617070726f76652063616c6c6572206973206e6f74206f7760008201527f6e6572206e6f7220617070726f76656420666f7220616c6c0000000000000000602082015250565b6000612574603883611dad565b915061257f82612518565b604082019050919050565b600060208201905081810360008301526125a381612567565b9050919050565b7f4552433732313a207472616e736665722063616c6c6572206973206e6f74206f60008201527f776e6572206e6f7220617070726f766564000000000000000000000000000000602082015250565b6000612606603183611dad565b9150612611826125aa565b604082019050919050565b60006020820190508181036000830152612635816125f9565b9050919050565b7f4552433732313a206f776e657220717565727920666f72206e6f6e657869737460008201527f656e7420746f6b656e0000000000000000000000000000000000000000000000602082015250565b6000612698602983611dad565b91506126a38261263c565b604082019050919050565b600060208201905081810360008301526126c78161268b565b9050919050565b7f4552433732313a2062616c616e636520717565727920666f7220746865207a6560008201527f726f206164647265737300000000000000000000000000000000000000000000602082015250565b600061272a602a83611dad565b9150612735826126ce565b604082019050919050565b600060208201905081810360008301526127598161271d565b9050919050565b7f4e487b7100000000000000000000000000000000000000000000000000000000600052601160045260246000fd5b600061279a82611e5d565b91506127a583611e5d565b9250827fffffffffffffffffffffffffffffffffffffffffffffffffffffffffffffffff038211156127da576127d9612760565b5b828201905092915050565b7f45524337323155524953746f726167653a2055524920717565727920666f722060008201527f6e6f6e6578697374656e7420746f6b656e000000000000000000000000000000602082015250565b6000612841603183611dad565b915061284c826127e5565b604082019050919050565b6000602082019050818103600083015261287081612834565b9050919050565b600081905092915050565b600061288d82611da2565b6128978185612877565b93506128a7818560208601611dbe565b80840191505092915050565b60006128bf8285612882565b91506128cb8284612882565b91508190509392505050565b7f4552433732313a206f70657261746f7220717565727920666f72206e6f6e657860008201527f697374656e7420746f6b656e0000000000000000000000000000000000000000602082015250565b6000612933602c83611dad565b915061293e826128d7565b604082019050919050565b6000602082019050818103600083015261296281612926565b9050919050565b7f4552433732313a207472616e736665722066726f6d20696e636f72726563742060008201527f6f776e6572000000000000000000000000000000000000000000000000000000602082015250565b60006129c5602583611dad565b91506129d082612969565b604082019050919050565b600060208201905081810360008301526129f4816129b8565b9050919050565b7f4552433732313a207472616e7366657220746f20746865207a65726f2061646460008201527f7265737300000000000000000000000000000000000000000000000000000000602082015250565b6000612a57602483611dad565b9150612a62826129fb565b604082019050919050565b60006020820190508181036000830152612a8681612a4a565b9050919050565b6000612a9882611e5d565b9150612aa383611e5d565b925082821015612ab657612ab5612760565b5b828203905092915050565b7f4552433732313a20617070726f766520746f2063616c6c657200000000000000600082015250565b6000612af7601983611dad565b9150612b0282612ac1565b602082019050919050565b60006020820190508181036000830152612b2681612aea565b9050919050565b7f4552433732313a206d696e7420746f20746865207a65726f2061646472657373600082015250565b6000612b63602083611dad565b9150612b6e82612b2d565b602082019050919050565b60006020820190508181036000830152612b9281612b56565b9050919050565b7f4552433732313a20746f6b656e20616c7265616479206d696e74656400000000600082015250565b6000612bcf601c83611dad565b9150612bda82612b99565b602082019050919050565b60006020820190508181036000830152612bfe81612bc2565b9050919050565b7f45524337323155524953746f726167653a2055524920736574206f66206e6f6e60008201527f6578697374656e7420746f6b656e000000000000000000000000000000000000602082015250565b6000612c61602e83611dad565b9150612c6c82612c05565b604082019050919050565b60006020820190508181036000830152612c9081612c54565b9050919050565b7f4552433732313a207472616e7366657220746f206e6f6e20455243373231526560008201527f63656976657220696d706c656d656e7465720000000000000000000000000000602082015250565b6000612cf3603283611dad565b9150612cfe82612c97565b604082019050919050565b60006020820190508181036000830152612d2281612ce6565b9050919050565b7f4552433732314d657461646174613a2055524920717565727920666f72206e6f60008201527f6e6578697374656e7420746f6b656e0000000000000000000000000000000000602082015250565b6000612d85602f83611dad565b9150612d9082612d29565b604082019050919050565b60006020820190508181036000830152612db481612d78565b9050919050565b600081519050919050565b600082825260208201905092915050565b6000612de282612dbb565b612dec8185612dc6565b9350612dfc818560208601611dbe565b612e0581611df1565b840191505092915050565b6000608082019050612e256000830187611ef2565b612e326020830186611ef2565b612e3f6040830185611f88565b8181036060830152612e518184612dd7565b905095945050505050565b600081519050612e6b81611d13565b92915050565b600060208284031215612e8757612e86611cdd565b5b6000612e9584828501612e5c565b91505092915050565b6000612ea982611e5d565b91507fffffffffffffffffffffffffffffffffffffffffffffffffffffffffffffffff821415612edc57612edb612760565b5b600182019050919050565b7f4e487b7100000000000000000000000000000000000000000000000000000000600052601260045260246000fd5b6000612f2182611e5d565b9150612f2c83611e5d565b925082612f3c57612f3b612ee7565b5b828204905092915050565b6000612f5282611e5d565b9150612f5d83611e5d565b925082612f6d57612f6c612ee7565b5b828206905092915050565b7f4e487b7100000000000000000000000000000000000000000000000000000000600052603260045260246000fdfea2646970667358221220ab2df8e6b40abf2eed03aeb3f19c6ce65434a4beb167933f6fdf4c4dcf8027ee64736f6c634300080c0033",
  "immutableReferences": {},
  "source": "\n// SPDX-License-Identifier: MIT\npragma solidity >=0.4.22 <0.9.0;\n\n// ::: implements the ERC721 standard\nimport \"@openzeppelin/contracts/token/ERC721/ERC721.sol\";\nimport \"@openzeppelin/contracts/token/ERC721/extensions/ERC721URIStorage.sol\";\n// ::: keeps track of the number of tokens issued\nimport \"@openzeppelin/contracts/utils/Counters.sol\";\nimport \"@openzeppelin/contracts/access/Ownable.sol\";\n\n\n// import \"@openzeppelin/contracts/utils/math\n// ::: Accessing the Ownable method ensures that only the creator of the smart contract can interact with it\ncontract nftContract is ERC721URIStorage{\n    using Counters for Counters.Counter;\n    uint public _tokenIds;\n    string public hh=\"nft contract\";\n    address public owner ;\n    uint public listingPrice=10;\n    uint public listingDuration;\n    uint public listingStart;\n    uint public listingEnd;\n    uint public _itemsSold;\n    uint public _itemsAvailable;\n    uint public _itemsTotal;\n    uint public _itemsSoldPerSecond;\n    uint public _itemsAvailablePerSecond;\n    struct  Listing{\n        string owner;\n        uint  price;\n    }Listing listing; \n\n    // :::::::::::::::::     the contract name and contract symbol for the NFT\n    constructor () public ERC721(\"nftContract\", \"nftTk\"){\n        _tokenIds = _tokenIds+1;\n        owner =msg.sender;\n    }\n        /****\n        ::: Create a function to mint/create the NFT\n        ::: receiver takes a type of address. This is the wallet address of the user that should receive the NFT minted using the smart contract\n        ::: tokenURI takes a string that contains metadata about the NFT\n        ::: this is the process of minting an nft, creating a unique token \n        *** */\n    modifier ownerOnly() {\n        require(\n            msg.sender == owner, \"This function is restricted to the contract's owner\"\n            );\n        _;\n    }\n    function getListingPrice()public returns(uint) {\n        return listingPrice;\n    }\n    function getHi()public returns(string memory) {\n        return hh;\n    }\n    function setListingPrice(uint _listingPrice)public  {\n        listingPrice = _listingPrice;\n\n    }\n    function createNFT(address receiver, string memory tokenURI) public returns (uint){\n        //require(msg.value >= 10, \"Not enough ETH sent; check price!\");\n        _tokenIds=_tokenIds+1;\n        uint newItemId = _tokenIds;\n        //uint public constant MAX_SUPPLY = 100;\n        //uint public constant PRICE = 0.01 ether;\n        //uint public constant MAX_PER_MINT = 5;\n        //string public baseTokenURI;\n        _mint(receiver, newItemId);\n        _setTokenURI(newItemId, tokenURI);\n        // ::: returns the id for the newly created token\n        // ::: returns the id for the newly created token\n        return newItemId;\n    }\n\n    /****\n    ::: this checks for certain parameters before minting\n    :::\n    :::\n    ****/\n    /*\n    function mintNFTs(uint _count) public payable {\n        uint totalMinted = _tokenIds.current();\n        require(\n        totalMinted.add(_count) <= MAX_SUPPLY, \"Not enough NFTs!\"\n        );\n        require(\n        _count > 0 && _count <= MAX_PER_MINT, \n        \"Cannot mint specified number of NFTs.\"\n        );\n        require(\n        msg.value >= PRICE.mul(_count), \n        \"Not enough ether to purchase NFTs.\"\n        );\n        for (uint i = 0; i < _count; i++) {\n            _mintSingleNFT();\n        }\n    }\n    *\n        /****\n        ::: Create a function to mint/create the NFT\n        ::: receiver takes a type of address. This is the wallet address of the user that should receive the NFT minted using the smart contract\n        ::: tokenURI takes a string that contains metadata about the NFT\n        *** */\n    /*\n    function addItemToMarket( address nftContractAddress, uint256 tokenId, uint256 price  ) public payable  {\n        require(price > 0, \"Price must be at least 1 wei\");\n        require(msg.value == listingPrice, \"Price must be equal to listing price\");\n        _itemIds.increment();\n        uint256 itemId = _itemIds.current();\n        idToMarketItem[itemId] =  MarketItem(\n            itemId,\n            nftContractAddress,\n            tokenId,\n            payable(msg.sender),\n            payable(address(0)),\n            price\n        );\n        IERC721(nftContractAddress).safeTransferFrom(msg.sender, address(this), tokenId);\n        emit MarketItemCreated(\n            itemId,\n            nftContractAddress,\n            tokenId,\n            msg.sender,\n            address(0),\n            price\n        );\n    }\n    function mintToken(address to, uint256 tokenId, string uri) public virtual payable {\n        require(msg.value >= 10, \"Not enough ETH sent; check price!\");\n        mint(to, tokenId);\n        _setTokenURI(tokenId, uri);\n    }\n    */\n    /*\n    function sellItemAndTransferOwnership( address nftContractAddress, uint256 itemId) \n        public payable  {\n            uint price = idToMarketItem[itemId].price;\n            uint tokenId = idToMarketItem[itemId].tokenId;\n            require(msg.value == price, \"Please submit the asking price in order to complete the purchase\");\n            idToMarketItem[itemId].seller.transfer(msg.value);\n            IERC721(nftContractAddress).transferFrom(address(this), msg.sender, tokenId);\n            idToMarketItem[itemId].owner = payable(msg.sender);\n            _itemsSold.increment();\n            payable(owner).transfer(listingPrice);\n    }\n    */\n    // ::::::::::::::\n    /*\n    balanceOf(owner)\n    ownerOf(tokenId)\n    approve(to, tokenId)\n    getApproved(tokenId)\n    setApprovalForAll(to, approved)\n    isApprovedForAll(owner, operator)\n    transferFrom(from, to, tokenId)\n    safeTransferFrom(from, to, tokenId)\n    safeTransferFrom(from, to, tokenId, _data)\n    _safeTransferFrom(from, to, tokenId, _data)\n    _exists(tokenId)\n    _isApprovedOrOwner(spender, tokenId)\n    _safeMint(to, tokenId)\n    _safeMint(to, tokenId, _data)\n    _mint(to, tokenId)\n    _burn(owner, tokenId)\n    _burn(tokenId)\n    _transferFrom(from, to, tokenId)\n    _checkOnERC721Received(from, to, tokenId, _data)\n    */\n}",
  "sourcePath": "/Applications/XAMPP/xamppfiles/htdocs/temp previous htdocs/ethereum/smart-contracts/contracts/nftContract.sol",
  "compiler": {
    "name": "solc",
    "version": "0.8.12+commit.f00d7308.Emscripten.clang"
  },
  "schemaVersion": "3.4.6",
  "updatedAt": "2022-04-02T19:10:24.062Z",
  "devdoc": {
    "kind": "dev",
    "methods": {
      "approve(address,uint256)": {
        "details": "See {IERC721-approve}."
      },
      "balanceOf(address)": {
        "details": "See {IERC721-balanceOf}."
      },
      "getApproved(uint256)": {
        "details": "See {IERC721-getApproved}."
      },
      "isApprovedForAll(address,address)": {
        "details": "See {IERC721-isApprovedForAll}."
      },
      "name()": {
        "details": "See {IERC721Metadata-name}."
      },
      "ownerOf(uint256)": {
        "details": "See {IERC721-ownerOf}."
      },
      "safeTransferFrom(address,address,uint256)": {
        "details": "See {IERC721-safeTransferFrom}."
      },
      "safeTransferFrom(address,address,uint256,bytes)": {
        "details": "See {IERC721-safeTransferFrom}."
      },
      "setApprovalForAll(address,bool)": {
        "details": "See {IERC721-setApprovalForAll}."
      },
      "supportsInterface(bytes4)": {
        "details": "See {IERC165-supportsInterface}."
      },
      "symbol()": {
        "details": "See {IERC721Metadata-symbol}."
      },
      "tokenURI(uint256)": {
        "details": "See {IERC721Metadata-tokenURI}."
      },
      "transferFrom(address,address,uint256)": {
        "details": "See {IERC721-transferFrom}."
      }
    },
    "version": 1
  },
  "userdoc": {
    "kind": "user",
    "methods": {},
    "version": 1
  }
}